:100000002BC045C0CDC243C0D5C241C040C03FC0D7
:100010003EC03DC03CC07CC13AC039C038C079C286
:10002000C1C10000390036000000000000040302D6
:100030000100000000003B00380000003A003700DB
:100040000101010101010101020202020102040891
:10005000102040800402010811241FBECFE5D2E029
:10006000DEBFCDBF10E0A0E6B0E0EEE6F7E002C0F4
:1000700005900D92A836B107D9F720E0A8E6B0E0C8
:1000800001C01D92AF39B207E1F7B9D26EC3B8CF44
:1000900080919E00882339F020919D0082131CC01E
:1000A0008FEF9FEF089590919C0080919B00891B9A
:1000B0008F70B1F390919C0080919B009817E1F3B1
:1000C000E0919C00EF5FEF70E0939C00F0E0E85956
:1000D000FF4F808190E00895E22FF0E0E859FF4F54
:1000E000808190E02F5F20939D00089520919A00D9
:1000F000909199002F5F921B9F7091F090919A00C0
:100100009F5F9F70209199009217E1F3E92FF0E033
:10011000E858FF4F808390939A0081E090E0089523
:1001200090E080E00895813021F480B78F7780BF20
:100130000895823019F480B78F7DF9CF833021F490
:100140008FB58F778FBD08958430E9F78FB58F7D98
:10015000F9CFCF93DF9387FD8F77282F30E0F90118
:10016000E85DFF4F8491F901E45BFF4FD491F90101
:10017000E05CFF4FC491CC2399F08111D4DFEC2FC8
:10018000F0E0EE0FFF1FEE5DFF4FA591B491EC91F3
:10019000ED2381E090E009F480E0DF91CF910895B4
:1001A00080E090E0FACF1F93CF93DF93162F87FD67
:1001B0008F77282F30E0F901E85DFF4F8491F90136
:1001C000E45BFF4FD491F901E05CFF4FC491CC2375
:1001D00099F08111A8DFEC2FF0E0EE0FFF1FEC5C2F
:1001E000FF4FA591B4918FB711110AC0F894EC910B
:1001F000D095DE23DC938FBFDF91CF911F910895BF
:10020000F894EC91DE2BF6CFCF92DF92EF92FF9233
:100210001F93CF93DF9300D000D0CDB7DEB77C0122
:1002200037DF182F8093880082E0E816F104E4F0AD
:10023000FE0131967F016E01F5E0CF0ED11C28DF63
:10024000F70181937F01EC15FD05C9F71130C1F469
:1002500089819A81AB81BC81809364009093650011
:10026000A0936600B09367000F900F900F900F90CF
:10027000DF91CF911F91FF90EF90DF90CF90089585
:10028000123091F789819A81AB81BC8180936000A3
:1002900090936100A0936200B0936300E5CF1F9339
:1002A000CF93DF93809188008230C9F0833001F1D1
:1002B000813031F510916500D0916600C0916700E2
:1002C0008091640013DF812F11DF8D2F0FDF8C2FC2
:1002D0000DDF10928800DF91CF911F91089510914A
:1002E0006100D0916200C091630080916000EACF0C
:1002F0008FE2FCDE82E2FADE82E2F8DE82EFE8CF15
:1003000080E0F4DE80E0F2DE80E0F0DE80E0E0CF4E
:100310001F920F920FB60F9211242F933F938F933A
:100320009F93AF93BF938091950090919600A09179
:100330009700B09198003091940026E0230F2D375C
:1003400068F129E8230F0396A11DB11D20939400A5
:100350008093950090939600A0939700B093980097
:100360008091900090919100A0919200B0919300A3
:100370000196A11DB11D8093900090939100A093D0
:100380009200B0939300BF91AF919F918F913F9155
:100390002F910F900FBE0F901F9018950296A11DE0
:1003A000B11DD4CF1F920F920FB60F9211242F932D
:1003B0003F934F935F936F937F938F939F93AF93ED
:1003C000BF93CF93EF93FF9380918900823009F41C
:1003D00074C0B8F4882389F1813009F454C0FF91C6
:1003E000EF91CF91BF91AF919F918F917F916F913D
:1003F0005F914F913F912F910F900FBE0F901F90E3
:100400001895843009F45FC0B8F1853041F784E075
:10041000809389009FB180919B008F5F8F702091A6
:100420009C00281709F473C080939B00E0919B0007
:10043000F0E0E859FF4F908319C08FB1882331F065
:100440008FB1869590918A00891319C0789B12C04C
:10045000E0918D00F0918E00309729F080919A0004
:1004600080939900099581E0809389001FB8D69AFE
:100470008EE721C084E0F8CF8FB1882321F0D69891
:1004800088EA8DB917C08091990090919A009817C9
:10049000B1F3809199008F5F8F7080939900E09104
:1004A0009900F0E0E858FF4F80818FB982E0809397
:1004B0008900D69A80E78EB992CF83E08093890035
:1004C000D6981FB8D5CF85E080938900D69880E76D
:1004D0008EB9E0918B00F0918C00309709F47FCFBA
:1004E000C0919B0080919C008C1709F478CF8EB14D
:1004F0008E7AE9F3759B73CF90919C0080919B005D
:10050000891B8F7090E00995C0939C0068CFD698A6
:10051000AFCF1F920F920FB60F9211242F933F93DC
:100520004F935F936F937F938F939F93AF93BF93FB
:10053000CF93EF93FF93E0918B00F0918C00309775
:1005400081F0C0919B0080919C008C1751F090919C
:100550009C0080919B00891B8F7090E00995C0934F
:100560009C0010928900D698CC9B18C0CE9BFCCFE3
:1005700088EA8DB980EF8EB9FF91EF91CF91BF914D
:10058000AF919F918F917F916F915F914F913F912B
:100590002F910F900FBE0F901F90189588EFE9CF05
:1005A0001F920F920FB60F9211240F900FBE0F9053
:1005B0001F9018951F920F920FB60F9211248F93D0
:1005C0009F93AF93BF938091640090916500A09139
:1005D0006600B09167000196A11DB11D8093640073
:1005E00090936500A0936600B0936700BF91AF91B0
:1005F0009F918F910F900FBE0F901F90189581B70C
:1006000081BF80B7826080BF80B7816080BF83B7C1
:10061000887F836083BF789489B7816089BF8EB5F6
:10062000887F8EBD8FB581608FBD8FB58D7F8FBD6B
:100630008EB5877F8EBD8EB58F7E8EBD8EB5836065
:100640008EBD86B18877866886B9379A16B8EDE48C
:10065000F0E02491E1E4F0E08491882399F090E0C7
:10066000880F991FFC01E65CFF4FA591B491FC0136
:10067000EC5CFF4F859194918FB7F894EC91E22B4D
:10068000EC938FBFF89414BE88E181BD8EE481BDE8
:10069000789410929C0010929B00109299001092F6
:1006A0009A0087E080938A0010928E0010928D004D
:1006B00010928C0010928B00DC9ADE9AD49AD69815
:1006C00088EA8DB980EF8EB9929A8BB780618BBF23
:1006D000C4E0D1E00FE411E081B5806481BDD09326
:1006E0008C00C0938B0010938E0000938D0040917E
:1006F0006400509165006091660070916700809180
:10070000600090916100A0916200B0916300481771
:1007100059076A077B07B0F083E01BDD892BB1F036
:1007200080918F00811106C061E081E03CDD81E0B5
:1007300080938F0085B7806285BF85B7877E85BF30
:100740008895CACF82E005DD892B31F780918F0033
:10075000813021F460E027DD10928F0085B7806240
:0E07600085BF85B7877E8061EACFF894FFCF12
:08076E00D81C8C5DD81C8C5DC9
:00000001FF
