:1000000028C037C036C035C0E2C033C032C031C0AE
:1000100030C02FC02EC091C02CC02BC02AC029C018
:1000200028C00000000000040302010000000000DE
:100030003B00380000003A003700010101010101D6
:1000400001010202020201020408102040800402A1
:10005000010811241FBECFE5D2E0DEBFCDBF20E0F6
:10006000A0E6B0E001C01D92A936B207E1F7B9D011
:100070003AC1C6CF87FD8F7790E0FC01EE5DFF4F60
:100080003491FC01EA5BFF4F2491FC01E65CFF4FD9
:10009000E491EE23B9F0332329F03130A1F480B795
:1000A0008F7780BFF0E0EE0FFF1FE25DFF4FA5915D
:1000B000B4918FB7611117C0F894EC9120952E235D
:1000C0002C938FBF0895323019F480B78F7DE9CF1C
:1000D000333021F48FB58F778FBDE4CF343011F7F3
:1000E0008FB58F7DF9CFF894EC912E2BE9CF3FB7E8
:1000F000F8948091650090916600A0916700B0919E
:10010000680022B708B600FE05C02F3F19F001961F
:10011000A11DB11D3FBFBA2FA92F982F8827BC0161
:10012000CD01620F711D811D911D43E0660F771F88
:10013000881F991F4A95D1F708951F920F920FB605
:100140000F9211242F933F938F939F93AF93BF935D
:100150008091610090916200A0916300B091640071
:100160003091600026E0230F2D3768F129E8230F36
:100170000396A11DB11D20936000809361009093B0
:100180006200A0936300B093640080916500909139
:100190006600A0916700B09168000196A11DB11D95
:1001A0008093650090936600A0936700B093680009
:1001B000BF91AF919F918F913F912F910F900FBE63
:1001C0000F901F9018950296A11DB11DD4CF1F92BC
:1001D0000F920FB60F9211240F900FBE0F901F9029
:1001E000189581B781BF80B7826080BF80B781607A
:1001F00080BF83B7887F836083BF789489B781602D
:1002000089BF8EB5887F8EBD8FB581608FBD8FB55C
:100210008D7F8FBD8EB5877F8EBD8EB58F7E8EBD57
:100220008EB583608EBD86B18877866886B9379A29
:1002300016B8E0E5F0E02491E4E4F0E0849188234E
:1002400099F090E0880F991FFC01EC5CFF4FA5919D
:10025000B491FC01E25DFF4F859194918FB7F894C2
:10026000EC91E22BEC938FBFF89414BE88E181BD32
:100270008EE481BD789481B5806481BD61E08AE0BF
:10028000F9DE35DFEB0182E3C82ED12CE12CF12C15
:100290002EDF6C1B7D0B683E7340F8F0C114D10457
:1002A000E104F10491F460E08AE0E4DE85B7806265
:1002B00085BF85B7877E806185BF85B7806285BF32
:1002C000889585B78F7D85BFD6CF81E0C81AD108C4
:1002D000E108F108C851DC4FDBCFC114D104E104BF
:0A02E000F104B1F6E0CFF894FFCF6F
:00000001FF
